:100F76000A128A11DE2F88140815881108128812A1
:100F860008138813EB2F881008118811081288128D
:100F960008178813EB2F0811881488110812881671
:100FA60008138813EB2F0815881088110812881269
:100FB60008138817EB2F0313831687140715871555
:100FC60088100811881108128812081388138312D2
:100FD600871CEE2FF12F871DF42FF72F871DFA2F71
:100FE600FD2F071DC627CE27071DBE27CE27071DA7
:0A0FF600D627EB2F071DD627C627CC
:02400E00B13FC0
:00000001FF
